{
  "_format": "hh-sol-artifact-1",
  "contractName": "AgentIdentityRegistry",
  "sourceName": "contracts/AgentIdentityRegistry.sol",
  "abi": [
    {
      "inputs": [],
      "stateMutability": "nonpayable",
      "type": "constructor"
    },
    {
      "inputs": [
        {
          "internalType": "address",
          "name": "sender",
          "type": "address"
        },
        {
          "internalType": "uint256",
          "name": "tokenId",
          "type": "uint256"
        },
        {
          "internalType": "address",
          "name": "owner",
          "type": "address"
        }
      ],
      "name": "ERC721IncorrectOwner",
      "type": "error"
    },
    {
      "inputs": [
        {
          "internalType": "address",
          "name": "operator",
          "type": "address"
        },
        {
          "internalType": "uint256",
          "name": "tokenId",
          "type": "uint256"
        }
      ],
      "name": "ERC721InsufficientApproval",
      "type": "error"
    },
    {
      "inputs": [
        {
          "internalType": "address",
          "name": "approver",
          "type": "address"
        }
      ],
      "name": "ERC721InvalidApprover",
      "type": "error"
    },
    {
      "inputs": [
        {
          "internalType": "address",
          "name": "operator",
          "type": "address"
        }
      ],
      "name": "ERC721InvalidOperator",
      "type": "error"
    },
    {
      "inputs": [
        {
          "internalType": "address",
          "name": "owner",
          "type": "address"
        }
      ],
      "name": "ERC721InvalidOwner",
      "type": "error"
    },
    {
      "inputs": [
        {
          "internalType": "address",
          "name": "receiver",
          "type": "address"
        }
      ],
      "name": "ERC721InvalidReceiver",
      "type": "error"
    },
    {
      "inputs": [
        {
          "internalType": "address",
          "name": "sender",
          "type": "address"
        }
      ],
      "name": "ERC721InvalidSender",
      "type": "error"
    },
    {
      "inputs": [
        {
          "internalType": "uint256",
          "name": "tokenId",
          "type": "uint256"
        }
      ],
      "name": "ERC721NonexistentToken",
      "type": "error"
    },
    {
      "anonymous": false,
      "inputs": [
        {
          "indexed": true,
          "internalType": "uint256",
          "name": "agentId",
          "type": "uint256"
        },
        {
          "indexed": false,
          "internalType": "address",
          "name": "wallet",
          "type": "address"
        }
      ],
      "name": "AgentWalletSet",
      "type": "event"
    },
    {
      "anonymous": false,
      "inputs": [
        {
          "indexed": true,
          "internalType": "uint256",
          "name": "agentId",
          "type": "uint256"
        }
      ],
      "name": "AgentWalletUnset",
      "type": "event"
    },
    {
      "anonymous": false,
      "inputs": [
        {
          "indexed": true,
          "internalType": "address",
          "name": "owner",
          "type": "address"
        },
        {
          "indexed": true,
          "internalType": "address",
          "name": "approved",
          "type": "address"
        },
        {
          "indexed": true,
          "internalType": "uint256",
          "name": "tokenId",
          "type": "uint256"
        }
      ],
      "name": "Approval",
      "type": "event"
    },
    {
      "anonymous": false,
      "inputs": [
        {
          "indexed": true,
          "internalType": "address",
          "name": "owner",
          "type": "address"
        },
        {
          "indexed": true,
          "internalType": "address",
          "name": "operator",
          "type": "address"
        },
        {
          "indexed": false,
          "internalType": "bool",
          "name": "approved",
          "type": "bool"
        }
      ],
      "name": "ApprovalForAll",
      "type": "event"
    },
    {
      "anonymous": false,
      "inputs": [
        {
          "indexed": false,
          "internalType": "uint256",
          "name": "_fromTokenId",
          "type": "uint256"
        },
        {
          "indexed": false,
          "internalType": "uint256",
          "name": "_toTokenId",
          "type": "uint256"
        }
      ],
      "name": "BatchMetadataUpdate",
      "type": "event"
    },
    {
      "anonymous": false,
      "inputs": [
        {
          "indexed": true,
          "internalType": "uint256",
          "name": "agentId",
          "type": "uint256"
        },
        {
          "indexed": true,
          "internalType": "string",
          "name": "indexedMetadataKey",
          "type": "string"
        },
        {
          "indexed": false,
          "internalType": "string",
          "name": "metadataKey",
          "type": "string"
        },
        {
          "indexed": false,
          "internalType": "bytes",
          "name": "metadataValue",
          "type": "bytes"
        }
      ],
      "name": "MetadataSet",
      "type": "event"
    },
    {
      "anonymous": false,
      "inputs": [
        {
          "indexed": false,
          "internalType": "uint256",
          "name": "_tokenId",
          "type": "uint256"
        }
      ],
      "name": "MetadataUpdate",
      "type": "event"
    },
    {
      "anonymous": false,
      "inputs": [
        {
          "indexed": true,
          "internalType": "uint256",
          "name": "agentId",
          "type": "uint256"
        },
        {
          "indexed": false,
          "internalType": "string",
          "name": "agentURI",
          "type": "string"
        },
        {
          "indexed": true,
          "internalType": "address",
          "name": "owner",
          "type": "address"
        }
      ],
      "name": "Registered",
      "type": "event"
    },
    {
      "anonymous": false,
      "inputs": [
        {
          "indexed": true,
          "internalType": "address",
          "name": "from",
          "type": "address"
        },
        {
          "indexed": true,
          "internalType": "address",
          "name": "to",
          "type": "address"
        },
        {
          "indexed": true,
          "internalType": "uint256",
          "name": "tokenId",
          "type": "uint256"
        }
      ],
      "name": "Transfer",
      "type": "event"
    },
    {
      "anonymous": false,
      "inputs": [
        {
          "indexed": true,
          "internalType": "uint256",
          "name": "agentId",
          "type": "uint256"
        },
        {
          "indexed": false,
          "internalType": "string",
          "name": "newURI",
          "type": "string"
        },
        {
          "indexed": true,
          "internalType": "address",
          "name": "updatedBy",
          "type": "address"
        }
      ],
      "name": "URIUpdated",
      "type": "event"
    },
    {
      "inputs": [
        {
          "internalType": "uint256",
          "name": "index",
          "type": "uint256"
        }
      ],
      "name": "agentIdAtIndex",
      "outputs": [
        {
          "internalType": "uint256",
          "name": "",
          "type": "uint256"
        }
      ],
      "stateMutability": "view",
      "type": "function"
    },
    {
      "inputs": [
        {
          "internalType": "address",
          "name": "to",
          "type": "address"
        },
        {
          "internalType": "uint256",
          "name": "tokenId",
          "type": "uint256"
        }
      ],
      "name": "approve",
      "outputs": [],
      "stateMutability": "nonpayable",
      "type": "function"
    },
    {
      "inputs": [
        {
          "internalType": "address",
          "name": "owner",
          "type": "address"
        }
      ],
      "name": "balanceOf",
      "outputs": [
        {
          "internalType": "uint256",
          "name": "",
          "type": "uint256"
        }
      ],
      "stateMutability": "view",
      "type": "function"
    },
    {
      "inputs": [
        {
          "internalType": "uint256",
          "name": "agentId",
          "type": "uint256"
        }
      ],
      "name": "getAgentWallet",
      "outputs": [
        {
          "internalType": "address",
          "name": "",
          "type": "address"
        }
      ],
      "stateMutability": "view",
      "type": "function"
    },
    {
      "inputs": [],
      "name": "getAllAgentIds",
      "outputs": [
        {
          "internalType": "uint256[]",
          "name": "",
          "type": "uint256[]"
        }
      ],
      "stateMutability": "view",
      "type": "function"
    },
    {
      "inputs": [
        {
          "internalType": "uint256",
          "name": "tokenId",
          "type": "uint256"
        }
      ],
      "name": "getApproved",
      "outputs": [
        {
          "internalType": "address",
          "name": "",
          "type": "address"
        }
      ],
      "stateMutability": "view",
      "type": "function"
    },
    {
      "inputs": [
        {
          "internalType": "uint256",
          "name": "agentId",
          "type": "uint256"
        },
        {
          "internalType": "string",
          "name": "metadataKey",
          "type": "string"
        }
      ],
      "name": "getMetadata",
      "outputs": [
        {
          "internalType": "bytes",
          "name": "",
          "type": "bytes"
        }
      ],
      "stateMutability": "view",
      "type": "function"
    },
    {
      "inputs": [
        {
          "internalType": "address",
          "name": "owner",
          "type": "address"
        },
        {
          "internalType": "address",
          "name": "operator",
          "type": "address"
        }
      ],
      "name": "isApprovedForAll",
      "outputs": [
        {
          "internalType": "bool",
          "name": "",
          "type": "bool"
        }
      ],
      "stateMutability": "view",
      "type": "function"
    },
    {
      "inputs": [],
      "name": "name",
      "outputs": [
        {
          "internalType": "string",
          "name": "",
          "type": "string"
        }
      ],
      "stateMutability": "view",
      "type": "function"
    },
    {
      "inputs": [
        {
          "internalType": "uint256",
          "name": "tokenId",
          "type": "uint256"
        }
      ],
      "name": "ownerOf",
      "outputs": [
        {
          "internalType": "address",
          "name": "",
          "type": "address"
        }
      ],
      "stateMutability": "view",
      "type": "function"
    },
    {
      "inputs": [
        {
          "internalType": "string",
          "name": "agentURI",
          "type": "string"
        },
        {
          "components": [
            {
              "internalType": "string",
              "name": "metadataKey",
              "type": "string"
            },
            {
              "internalType": "bytes",
              "name": "metadataValue",
              "type": "bytes"
            }
          ],
          "internalType": "struct AgentIdentityRegistry.MetadataEntry[]",
          "name": "metadata",
          "type": "tuple[]"
        }
      ],
      "name": "register",
      "outputs": [
        {
          "internalType": "uint256",
          "name": "agentId",
          "type": "uint256"
        }
      ],
      "stateMutability": "nonpayable",
      "type": "function"
    },
    {
      "inputs": [
        {
          "internalType": "string",
          "name": "agentURI",
          "type": "string"
        }
      ],
      "name": "register",
      "outputs": [
        {
          "internalType": "uint256",
          "name": "agentId",
          "type": "uint256"
        }
      ],
      "stateMutability": "nonpayable",
      "type": "function"
    },
    {
      "inputs": [
        {
          "internalType": "address",
          "name": "from",
          "type": "address"
        },
        {
          "internalType": "address",
          "name": "to",
          "type": "address"
        },
        {
          "internalType": "uint256",
          "name": "tokenId",
          "type": "uint256"
        }
      ],
      "name": "safeTransferFrom",
      "outputs": [],
      "stateMutability": "nonpayable",
      "type": "function"
    },
    {
      "inputs": [
        {
          "internalType": "address",
          "name": "from",
          "type": "address"
        },
        {
          "internalType": "address",
          "name": "to",
          "type": "address"
        },
        {
          "internalType": "uint256",
          "name": "tokenId",
          "type": "uint256"
        },
        {
          "internalType": "bytes",
          "name": "data",
          "type": "bytes"
        }
      ],
      "name": "safeTransferFrom",
      "outputs": [],
      "stateMutability": "nonpayable",
      "type": "function"
    },
    {
      "inputs": [
        {
          "internalType": "uint256",
          "name": "agentId",
          "type": "uint256"
        },
        {
          "internalType": "string",
          "name": "newURI",
          "type": "string"
        }
      ],
      "name": "setAgentURI",
      "outputs": [],
      "stateMutability": "nonpayable",
      "type": "function"
    },
    {
      "inputs": [
        {
          "internalType": "uint256",
          "name": "agentId",
          "type": "uint256"
        },
        {
          "internalType": "address",
          "name": "newWallet",
          "type": "address"
        }
      ],
      "name": "setAgentWallet",
      "outputs": [],
      "stateMutability": "nonpayable",
      "type": "function"
    },
    {
      "inputs": [
        {
          "internalType": "address",
          "name": "operator",
          "type": "address"
        },
        {
          "internalType": "bool",
          "name": "approved",
          "type": "bool"
        }
      ],
      "name": "setApprovalForAll",
      "outputs": [],
      "stateMutability": "nonpayable",
      "type": "function"
    },
    {
      "inputs": [
        {
          "internalType": "uint256",
          "name": "agentId",
          "type": "uint256"
        },
        {
          "internalType": "string",
          "name": "metadataKey",
          "type": "string"
        },
        {
          "internalType": "bytes",
          "name": "metadataValue",
          "type": "bytes"
        }
      ],
      "name": "setMetadata",
      "outputs": [],
      "stateMutability": "nonpayable",
      "type": "function"
    },
    {
      "inputs": [
        {
          "internalType": "bytes4",
          "name": "interfaceId",
          "type": "bytes4"
        }
      ],
      "name": "supportsInterface",
      "outputs": [
        {
          "internalType": "bool",
          "name": "",
          "type": "bool"
        }
      ],
      "stateMutability": "view",
      "type": "function"
    },
    {
      "inputs": [],
      "name": "symbol",
      "outputs": [
        {
          "internalType": "string",
          "name": "",
          "type": "string"
        }
      ],
      "stateMutability": "view",
      "type": "function"
    },
    {
      "inputs": [
        {
          "internalType": "uint256",
          "name": "tokenId",
          "type": "uint256"
        }
      ],
      "name": "tokenURI",
      "outputs": [
        {
          "internalType": "string",
          "name": "",
          "type": "string"
        }
      ],
      "stateMutability": "view",
      "type": "function"
    },
    {
      "inputs": [],
      "name": "totalSupply",
      "outputs": [
        {
          "internalType": "uint256",
          "name": "",
          "type": "uint256"
        }
      ],
      "stateMutability": "view",
      "type": "function"
    },
    {
      "inputs": [
        {
          "internalType": "address",
          "name": "from",
          "type": "address"
        },
        {
          "internalType": "address",
          "name": "to",
          "type": "address"
        },
        {
          "internalType": "uint256",
          "name": "tokenId",
          "type": "uint256"
        }
      ],
      "name": "transferFrom",
      "outputs": [],
      "stateMutability": "nonpayable",
      "type": "function"
    },
    {
      "inputs": [
        {
          "internalType": "uint256",
          "name": "agentId",
          "type": "uint256"
        }
      ],
      "name": "unsetAgentWallet",
      "outputs": [],
      "stateMutability": "nonpayable",
      "type": "function"
    }
  ],
  "bytecode": "0x60806040523480156200001157600080fd5b5060405180604001604052806011815260200170556e694167656e7420526567697374727960781b815250604051806040016040528060088152602001671553925051d1539560c21b81525081600090816200006e919062000130565b5060016200007d828262000130565b5050600160075550620001fc565b634e487b7160e01b600052604160045260246000fd5b600181811c90821680620000b657607f821691505b602082108103620000d757634e487b7160e01b600052602260045260246000fd5b50919050565b601f8211156200012b57600081815260208120601f850160051c81016020861015620001065750805b601f850160051c820191505b81811015620001275782815560010162000112565b5050505b505050565b81516001600160401b038111156200014c576200014c6200008b565b62000164816200015d8454620000a1565b84620000dd565b602080601f8311600181146200019c5760008415620001835750858301515b600019600386901b1c1916600185901b17855562000127565b600085815260208120601f198616915b82811015620001cd57888601518255948401946001909101908401620001ac565b5085821015620001ec5787850151600019600388901b60f8161c191681555b5050505050600190811b01905550565b612235806200020c6000396000f3fe608060405234801561001057600080fd5b50600436106101575760003560e01c80635f6f2e9c116100c3578063a22cb4651161007c578063a22cb465146102d9578063b88d4fde146102ec578063c87b56dd146102ff578063cb4799f214610312578063e985e9c514610325578063f2c298be1461033857600080fd5b80635f6f2e9c146102725780636352211e14610285578063636d2f641461029857806370a08231146102ab5780638ea42286146102be57806395d89b41146102d157600080fd5b80631136a595116101155780631136a595146101ff57806318160ddd1461021457806323b872dd146102265780633fddcf191461023957806342842e0e1461024c578063466648da1461025f57600080fd5b80623395091461015c57806301ffc9a71461018c57806306fdde03146101af578063081812fc146101c4578063095ea7b3146101d75780630af28bd3146101ec575b600080fd5b61016f61016a3660046117f5565b61034b565b6040516001600160a01b0390911681526020015b60405180910390f35b61019f61019a366004611827565b6103a4565b6040519015158152602001610183565b6101b76103cf565b6040516101839190611894565b61016f6101d23660046117f5565b610461565b6101ea6101e53660046118c3565b61048a565b005b6101ea6101fa366004611936565b610499565b610207610552565b6040516101839190611982565b600a545b604051908152602001610183565b6101ea6102343660046119c6565b6105a9565b6101ea6102473660046117f5565b610634565b6101ea61025a3660046119c6565b6106aa565b6101ea61026d366004611aa5565b6106ca565b6102186102803660046117f5565b6107e6565b61016f6102933660046117f5565b610872565b6101ea6102a6366004611b12565b61087d565b6102186102b9366004611b3e565b610975565b6102186102cc366004611b59565b6109bd565b6101b7610cd2565b6101ea6102e7366004611bf3565b610ce1565b6101ea6102fa366004611c2f565b610cec565b6101b761030d3660046117f5565b610d04565b6101b7610320366004611c97565b610e15565b61019f610333366004611cde565b610f08565b610218610346366004611d08565b610f36565b6000818152600260205260408120546001600160a01b03166103885760405162461bcd60e51b815260040161037f90611d4a565b60405180910390fd5b506000908152600960205260409020546001600160a01b031690565b60006001600160e01b03198216632483248360e11b14806103c957506103c982611010565b92915050565b6060600080546103de90611d95565b80601f016020809104026020016040519081016040528092919081815260200182805461040a90611d95565b80156104575780601f1061042c57610100808354040283529160200191610457565b820191906000526020600020905b81548152906001019060200180831161043a57829003601f168201915b5050505050905090565b600061046c82611060565b506000828152600460205260409020546001600160a01b03166103c9565b610495828233611099565b5050565b336104a384610872565b6001600160a01b0316146104c95760405162461bcd60e51b815260040161037f90611dcf565b6105098383838080601f0160208091040260200160405190810160405280939291908181526020018383808284376000920191909152506110a692505050565b336001600160a01b0316837f3a2c7fffc2cba7582c690e3b82c453ea02a308326a98a3ad7576c606336409fb8484604051610545929190611e2d565b60405180910390a3505050565b6060600a80548060200260200160405190810160405280929190818152602001828054801561045757602002820191906000526020600020905b81548152602001906001019080831161058c575050505050905090565b6001600160a01b0382166105d357604051633250574960e11b81526000600482015260240161037f565b60006105e08383336110f6565b9050836001600160a01b0316816001600160a01b03161461062e576040516364283d7b60e01b81526001600160a01b038086166004830152602482018490528216604482015260640161037f565b50505050565b3361063e82610872565b6001600160a01b0316146106645760405162461bcd60e51b815260040161037f90611dcf565b60008181526009602052604080822080546001600160a01b03191690555182917f71431e78d89cfcd109b26824c9284976654c91c0a617312646c2febbe0c4352a91a250565b6106c583838360405180602001604052806000815250610cec565b505050565b336106d484610872565b6001600160a01b0316146106fa5760405162461bcd60e51b815260040161037f90611dcf565b60408051808201909152600b81526a1859d95b9d15d85b1b195d60aa1b6020918201528251908301207fd539ef6cd918df2ebca3f2499081ca12587c60ad490e0aadf59f8771ecd4b1c7016107615760405162461bcd60e51b815260040161037f90611e41565b8060086000858152602001908152602001600020836040516107839190611e8a565b9081526020016040518091039020908161079d9190611eec565b50816040516107ac9190611e8a565b6040518091039020837f2c149ed548c6d2993cd73efe187df6eccabe4538091b33adbd25fafdb8a1468b8484604051610545929190611fac565b600a54600090821061084d5760405162461bcd60e51b815260206004820152602a60248201527f4167656e744964656e7469747952656769737472793a20696e646578206f7574604482015269206f6620626f756e647360b01b606482015260840161037f565b600a828154811061086057610860611fda565b90600052602060002001549050919050565b60006103c982611060565b3361088783610872565b6001600160a01b0316146108ad5760405162461bcd60e51b815260040161037f90611dcf565b6001600160a01b0381166109115760405162461bcd60e51b815260206004820152602560248201527f4167656e744964656e7469747952656769737472793a20696e76616c69642077604482015264185b1b195d60da1b606482015260840161037f565b60008281526009602090815260409182902080546001600160a01b0319166001600160a01b038516908117909155915191825283917fc1b62bacf2a2f4363c2190e00f2370f3b563001a0c56c73eae69619e58e9624c910160405180910390a25050565b60006001600160a01b0382166109a1576040516322718ad960e21b81526000600482015260240161037f565b506001600160a01b031660009081526003602052604090205490565b60078054600091826109ce83611ff0565b9190505590506109de33826111ef565b610a1e8186868080601f0160208091040260200160405190810160405280939291908181526020018383808284376000920191909152506110a692505050565b60005b82811015610c565760408051808201909152600b81526a1859d95b9d15d85b1b195d60aa1b6020909101527f2ac6109326e720d1435c0db66f7e35eda7839f52b6f1f5520a60788e132b4e39848483818110610a7f57610a7f611fda565b9050602002810190610a919190612017565b610a9b908061202d565b604051610aa9929190612074565b604051809103902003610ace5760405162461bcd60e51b815260040161037f90611e41565b838382818110610ae057610ae0611fda565b9050602002810190610af29190612017565b610b0090602081019061202d565b6000848152600860205260409020868685818110610b2057610b20611fda565b9050602002810190610b329190612017565b610b3c908061202d565b604051610b4a929190612074565b90815260200160405180910390209182610b65929190612084565b50838382818110610b7857610b78611fda565b9050602002810190610b8a9190612017565b610b94908061202d565b604051610ba2929190612074565b6040518091039020827f2c149ed548c6d2993cd73efe187df6eccabe4538091b33adbd25fafdb8a1468b868685818110610bde57610bde611fda565b9050602002810190610bf09190612017565b610bfa908061202d565b888887818110610c0c57610c0c611fda565b9050602002810190610c1e9190612017565b610c2c90602081019061202d565b604051610c3c9493929190612144565b60405180910390a380610c4e81611ff0565b915050610a21565b50600a80546001810182556000919091527fc65a7bb8d6351c1cf70c95a316cc6a92839c986682d98bc35f958f4883f9d2a801819055604051339082907fca52e62c367d81bb2e328eb795f7c7ba24afb478408a26c0e201d155c449bc4a90610cc29089908990611e2d565b60405180910390a3949350505050565b6060600180546103de90611d95565b610495338383611209565b610cf78484846105a9565b61062e33858585856112a0565b6060610d0f82611060565b5060008281526006602052604081208054610d2990611d95565b80601f0160208091040260200160405190810160405280929190818152602001828054610d5590611d95565b8015610da25780601f10610d7757610100808354040283529160200191610da2565b820191906000526020600020905b815481529060010190602001808311610d8557829003601f168201915b505050505090506000610dc060408051602081019091526000815290565b90508051600003610dd2575092915050565b815115610e04578082604051602001610dec929190612176565b60405160208183030381529060405292505050919050565b610e0d846113cb565b949350505050565b6000828152600260205260409020546060906001600160a01b0316610e4c5760405162461bcd60e51b815260040161037f90611d4a565b600083815260086020526040908190209051610e69908490611e8a565b90815260200160405180910390208054610e8290611d95565b80601f0160208091040260200160405190810160405280929190818152602001828054610eae90611d95565b8015610efb5780601f10610ed057610100808354040283529160200191610efb565b820191906000526020600020905b815481529060010190602001808311610ede57829003601f168201915b5050505050905092915050565b6001600160a01b03918216600090815260056020908152604080832093909416825291909152205460ff1690565b6007805460009182610f4783611ff0565b919050559050610f5733826111ef565b610f978184848080601f0160208091040260200160405190810160405280939291908181526020018383808284376000920191909152506110a692505050565b600a80546001810182556000919091527fc65a7bb8d6351c1cf70c95a316cc6a92839c986682d98bc35f958f4883f9d2a801819055604051339082907fca52e62c367d81bb2e328eb795f7c7ba24afb478408a26c0e201d155c449bc4a906110029087908790611e2d565b60405180910390a392915050565b60006001600160e01b031982166380ac58cd60e01b148061104157506001600160e01b03198216635b5e139f60e01b145b806103c957506301ffc9a760e01b6001600160e01b03198316146103c9565b6000818152600260205260408120546001600160a01b0316806103c957604051637e27328960e01b81526004810184905260240161037f565b6106c58383836001611440565b60008281526006602052604090206110be8282611eec565b506040518281527ff8e1a15aba9398e019f0b49df1a4fde98ee17ae345cb5f6b5e2c27f5033e8ce79060200160405180910390a15050565b6000828152600260205260408120546001600160a01b039081169083161561112357611123818486611546565b6001600160a01b0381161561116157611140600085600080611440565b6001600160a01b038116600090815260036020526040902080546000190190555b6001600160a01b03851615611190576001600160a01b0385166000908152600360205260409020805460010190555b60008481526002602052604080822080546001600160a01b0319166001600160a01b0389811691821790925591518793918516917fddf252ad1be2c89b69c2b068fc378daa952ba7f163c4a11628f55a4df523b3ef91a4949350505050565b6104958282604051806020016040528060008152506115aa565b6001600160a01b03821661123b57604051630b61174360e31b81526001600160a01b038316600482015260240161037f565b6001600160a01b03838116600081815260056020908152604080832094871680845294825291829020805460ff191686151590811790915591519182527f17307eab39ab6107e8899845ad3d59bd9653f200f220920489ca2b5937696c319101610545565b6001600160a01b0383163b156113c457604051630a85bd0160e11b81526001600160a01b0384169063150b7a02906112e29088908890879087906004016121a5565b6020604051808303816000875af192505050801561131d575060408051601f3d908101601f1916820190925261131a918101906121e2565b60015b611386573d80801561134b576040519150601f19603f3d011682016040523d82523d6000602084013e611350565b606091505b50805160000361137e57604051633250574960e11b81526001600160a01b038516600482015260240161037f565b805160208201fd5b6001600160e01b03198116630a85bd0160e11b146113c257604051633250574960e11b81526001600160a01b038516600482015260240161037f565b505b5050505050565b60606113d682611060565b5060006113ee60408051602081019091526000815290565b9050600081511161140e5760405180602001604052806000815250611439565b80611418846115c2565b604051602001611429929190612176565b6040516020818303038152906040525b9392505050565b808061145457506001600160a01b03821615155b1561151657600061146484611060565b90506001600160a01b038316158015906114905750826001600160a01b0316816001600160a01b031614155b80156114a357506114a18184610f08565b155b156114cc5760405163a9fbf51f60e01b81526001600160a01b038416600482015260240161037f565b81156115145783856001600160a01b0316826001600160a01b03167f8c5be1e5ebec7d5bd14f71427d1e84f3dd0314c0f7b2291e5b200ac8c7c3b92560405160405180910390a45b505b5050600090815260046020526040902080546001600160a01b0319166001600160a01b0392909216919091179055565b611551838383611655565b6106c5576001600160a01b03831661157f57604051637e27328960e01b81526004810182905260240161037f565b60405163177e802f60e01b81526001600160a01b03831660048201526024810182905260440161037f565b6115b483836116b8565b6106c53360008585856112a0565b606060006115cf8361171d565b600101905060008167ffffffffffffffff8111156115ef576115ef611a02565b6040519080825280601f01601f191660200182016040528015611619576020820181803683370190505b5090508181016020015b600019016f181899199a1a9b1b9c1cb0b131b232b360811b600a86061a8153600a850494508461162357509392505050565b60006001600160a01b03831615801590610e0d5750826001600160a01b0316846001600160a01b0316148061168f575061168f8484610f08565b80610e0d5750506000908152600460205260409020546001600160a01b03908116911614919050565b6001600160a01b0382166116e257604051633250574960e11b81526000600482015260240161037f565b60006116f0838360006110f6565b90506001600160a01b038116156106c5576040516339e3563760e11b81526000600482015260240161037f565b60008072184f03e93ff9f4daa797ed6e38ed64bf6a1f0160401b831061175c5772184f03e93ff9f4daa797ed6e38ed64bf6a1f0160401b830492506040015b6d04ee2d6d415b85acef81000000008310611788576d04ee2d6d415b85acef8100000000830492506020015b662386f26fc1000083106117a657662386f26fc10000830492506010015b6305f5e10083106117be576305f5e100830492506008015b61271083106117d257612710830492506004015b606483106117e4576064830492506002015b600a83106103c95760010192915050565b60006020828403121561180757600080fd5b5035919050565b6001600160e01b03198116811461182457600080fd5b50565b60006020828403121561183957600080fd5b81356114398161180e565b60005b8381101561185f578181015183820152602001611847565b50506000910152565b60008151808452611880816020860160208601611844565b601f01601f19169290920160200192915050565b6020815260006114396020830184611868565b80356001600160a01b03811681146118be57600080fd5b919050565b600080604083850312156118d657600080fd5b6118df836118a7565b946020939093013593505050565b60008083601f8401126118ff57600080fd5b50813567ffffffffffffffff81111561191757600080fd5b60208301915083602082850101111561192f57600080fd5b9250929050565b60008060006040848603121561194b57600080fd5b83359250602084013567ffffffffffffffff81111561196957600080fd5b611975868287016118ed565b9497909650939450505050565b6020808252825182820181905260009190848201906040850190845b818110156119ba5783518352928401929184019160010161199e565b50909695505050505050565b6000806000606084860312156119db57600080fd5b6119e4846118a7565b92506119f2602085016118a7565b9150604084013590509250925092565b634e487b7160e01b600052604160045260246000fd5b600082601f830112611a2957600080fd5b813567ffffffffffffffff80821115611a4457611a44611a02565b604051601f8301601f19908116603f01168101908282118183101715611a6c57611a6c611a02565b81604052838152866020858801011115611a8557600080fd5b836020870160208301376000602085830101528094505050505092915050565b600080600060608486031215611aba57600080fd5b83359250602084013567ffffffffffffffff80821115611ad957600080fd5b611ae587838801611a18565b93506040860135915080821115611afb57600080fd5b50611b0886828701611a18565b9150509250925092565b60008060408385031215611b2557600080fd5b82359150611b35602084016118a7565b90509250929050565b600060208284031215611b5057600080fd5b611439826118a7565b60008060008060408587031215611b6f57600080fd5b843567ffffffffffffffff80821115611b8757600080fd5b611b93888389016118ed565b90965094506020870135915080821115611bac57600080fd5b818701915087601f830112611bc057600080fd5b813581811115611bcf57600080fd5b8860208260051b8501011115611be457600080fd5b95989497505060200194505050565b60008060408385031215611c0657600080fd5b611c0f836118a7565b915060208301358015158114611c2457600080fd5b809150509250929050565b60008060008060808587031215611c4557600080fd5b611c4e856118a7565b9350611c5c602086016118a7565b925060408501359150606085013567ffffffffffffffff811115611c7f57600080fd5b611c8b87828801611a18565b91505092959194509250565b60008060408385031215611caa57600080fd5b82359150602083013567ffffffffffffffff811115611cc857600080fd5b611cd485828601611a18565b9150509250929050565b60008060408385031215611cf157600080fd5b611cfa836118a7565b9150611b35602084016118a7565b60008060208385031215611d1b57600080fd5b823567ffffffffffffffff811115611d3257600080fd5b611d3e858286016118ed565b90969095509350505050565b6020808252602b908201527f4167656e744964656e7469747952656769737472793a206167656e7420646f6560408201526a1cc81b9bdd08195e1a5cdd60aa1b606082015260800190565b600181811c90821680611da957607f821691505b602082108103611dc957634e487b7160e01b600052602260045260246000fd5b50919050565b6020808252818101527f4167656e744964656e7469747952656769737472793a206e6f74206f776e6572604082015260600190565b81835281816020850137506000828201602090810191909152601f909101601f19169091010190565b602081526000610e0d602083018486611e04565b60208082526029908201527f4167656e744964656e7469747952656769737472793a20757365207365744167604082015268195b9d15d85b1b195d60ba1b606082015260800190565b60008251611e9c818460208701611844565b9190910192915050565b601f8211156106c557600081815260208120601f850160051c81016020861015611ecd5750805b601f850160051c820191505b818110156113c257828155600101611ed9565b815167ffffffffffffffff811115611f0657611f06611a02565b611f1a81611f148454611d95565b84611ea6565b602080601f831160018114611f4f5760008415611f375750858301515b600019600386901b1c1916600185901b1785556113c2565b600085815260208120601f198616915b82811015611f7e57888601518255948401946001909101908401611f5f565b5085821015611f9c5787850151600019600388901b60f8161c191681555b5050505050600190811b01905550565b604081526000611fbf6040830185611868565b8281036020840152611fd18185611868565b95945050505050565b634e487b7160e01b600052603260045260246000fd5b60006001820161201057634e487b7160e01b600052601160045260246000fd5b5060010190565b60008235603e19833603018112611e9c57600080fd5b6000808335601e1984360301811261204457600080fd5b83018035915067ffffffffffffffff82111561205f57600080fd5b60200191503681900382131561192f57600080fd5b8183823760009101908152919050565b67ffffffffffffffff83111561209c5761209c611a02565b6120b0836120aa8354611d95565b83611ea6565b6000601f8411600181146120e457600085156120cc5750838201355b600019600387901b1c1916600186901b1783556113c4565b600083815260209020601f19861690835b8281101561211557868501358255602094850194600190920191016120f5565b50868210156121325760001960f88860031b161c19848701351681555b505060018560011b0183555050505050565b604081526000612158604083018688611e04565b828103602084015261216b818587611e04565b979650505050505050565b60008351612188818460208801611844565b83519083019061219c818360208801611844565b01949350505050565b6001600160a01b03858116825284166020820152604081018390526080606082018190526000906121d890830184611868565b9695505050505050565b6000602082840312156121f457600080fd5b81516114398161180e56fea2646970667358221220edf2b42c7193b144e6c7598d99397565bba6b6c5f6c63b09350c6a2ae6881f7164736f6c63430008140033",
  "linkReferences": {},
  "deployedLinkReferences": {}
}